:1000000090010020DD2F0000CF240000C723000056
:1000100000000000000000000000000000000000E0
:100020000000000000000000000000001F2C000085
:1000300000000000000000005B2F00005F2F0000A8
:10004000D5230000DF230000E9230000F323000094
:10005000DB2F000077300000FD23000007240000A4
:1000600011240000833000001B240000B130000088
:1000700025240000B33000002F24000039240000A4
:10008000432400004D240000572400006124000098
:100090006B240000752400007F24000089240000E8
:1000A00093240000B53000009D240000A724000028
:1000B000B1240000B7300000BB240000C5240000BC
:1000C00080B5022000F0E8FB002806D0022000F0F6
:1000D00003FCB4480168491C016001BDB1480068D7
:1000E0007047F2B594B006000024200069460885E8
:1000F000049410210BA800F0BFFD0C2107A800F00C
:10010000BBFD032103A800F0B7FD082105A800F0FE
:10011000B3FD14210FA800F0AFFD3000C0B20128DC
:100120003BD100200290002001900020009001238C
:1001300000220521032000F067FE0020029000202D
:10014000019000200090012300220621032000F0EE
:100150005BFE2020C043A8490A6802400A600122D1
:10016000A64B1D680727BD4315431D60A44B1D68A2
:100170002840186008684025A8430860A148016825
:100180000725A9430A43026040201968014319600A
:100190009D490A681043086036E000200290002064
:1001A000019000200090012300220221002000F095
:1001B0002BFE0020029000200190002000900123DF
:1001C00000220121002000F01FFE0420C0438F49BF
:1001D0000A6802400A6001228D4B1D680727BD4353
:1001E00015431D608B4B1D68284018600868022568
:1001F000A8430860884801680725A9430A430260AC
:1002000018680221014319603000C0B2002804D1EF
:100210000121002001F066FA03E00121012001F034
:1002200061FA7E4809900794089407A80D9001256B
:100230000BA928000873032002000A7021006A46F7
:10024000117303A90C9105A922004A70149A069211
:10025000087000F0F7FF049005AA04993000C0B2BE
:1002600001F00DFC07000FA845712100017130005D
:10027000C0B2002811D10FA9002000F089FB39007D
:1002800089B2002000F07EFC390089B2002000F025
:10029000A9FC002000F048FC10E00FA9012000F0AC
:1002A00077FB390089B2012000F06CFC390089B27B
:1002B000012000F097FC012000F036FC0BA9300073
:1002C000C0B201F020FD01213000C0B201F030FBCE
:1002D00001213000C0B201F054FC01213000C0B255
:1002E00001F006FC2100C9B2012001F0ADFB0221A2
:1002F000012001F046FC15B0F0BD80B5002001F0F2
:1003000043FD012805D1002001F057FD002001F038
:100310008FFD012001F038FD012805D1012001F0F9
:100320004CFD012001F084FD01BDF0B585B0002534
:100330002C003B4E37001421684600F09DFC3948E4
:1003400004906846290001702900417002218170E3
:100350002900C170057101252900417169460220FB
:1003600000F016FB002800D02C00022000F0B4FAA8
:10037000022000F0D2FA01220321102002F006F838
:10038000390089B2022000F0FDFB310089B2022061
:1003900000F028FC022000F0C7FB2000C0B205B02E
:1003A000F0BD00007800002070B51F4C2678C74DC6
:1003B000002001F038FCF6B2A8550121002001F020
:1003C000E0FB2078002802D128780F2813D120786C
:1003D000182805D1287E002802D0002020700AE0CD
:1003E0002078401C20702078192804DB0020207021
:1003F0000120B749087070BDCC0D0240D40C0240FA
:10040000C00D0240D80C0240E40D02400C0D024029
:10041000080C0240000D0240040C0240A903000039
:1004200060F00000C100000089000020F0B58BB032
:10043000082104A800F020FC04A806210170002770
:1004400039004170059701210F2001F04BF904A8F4
:1004500002F049F8042000F067FF03A8390001709A
:10046000012141700121817003A800F0FDFE0121EE
:100470001C2001F037F90121082001F033F9012196
:100480001A2001F02FF9FFF750FF00200290002002
:10049000019000200090012300220321002000F0A1
:1004A000B3FC01220521032000F039FC01220621C2
:1004B000032000F034FC0521032000F0ACFD0028EF
:1004C00000D0A7E0962149010020FFF70AFE012194
:1004D000002001F053FA01973800694608700121A5
:1004E000002001F020FB002878D03C002000C0B2A2
:1004F0000A281ADA08AD002001F095FB2100C9B2E4
:1005000068540121002001F03CFB2000C0B2285CAF
:100510000A280AD028785528E8D1641C0121002037
:1005200001F001FB0028E1D1F8E708AD6878DD288B
:100530002DD15521002001F052FBDC21002001F0DB
:100540004EFB06AE6348007830706348018889B27C
:10055000090A71700088B07060480078F070C44873
:10056000007830715E48007870713D002800C0B29C
:10057000062807DA2800C0B2315C002001F02FFB0A
:100580006D1CF3E70A21002001F029FB22E06878C6
:10059000DB281FD10221B74801F086FC4D4E300008
:1005A00001F01CFEA978300001F054FDE87801024A
:1005B0002879014389B2484801F0A8FD6979474884
:1005C00001F048FDA979AA4801F044FDE9794448C1
:1005D00001F040FD0121002001F0D3FAFFF77EFD7C
:1005E0000199401AC92800D279E7FFF777FD0190F9
:1005F00068460078002803D101206946087002E0AF
:10060000380069460870684602780321002000F02F
:10061000D5FC64E798490020FFF763FD01F084FFF3
:10062000964801F0A7FF002800D1FEE702F0E9F8A4
:10063000012128480078C0B202F0ECF82748007881
:10064000C0B202F04FF92448008880B202F0ACF941
:1006500087480078C0B202F0ECF902F0C9F82048EF
:1006600002F006FA1A4C207800282CD00121002034
:1006700001F084F9380020700021002000F032F8E9
:10068000002002F036F814217D4802F08BF800209B
:1006900002F04CF802F0ACF87A480168002902D167
:1006A0000121016000E0076000680200D2B203216E
:1006B000002000F083FC0121002001F062FA0121FA
:1006C000002001F035F901F038FFCBE730000020C1
:1006D00088000020F03F0000F23F0000F43F0000DF
:1006E000F83F0000F3B581B0142600250095644C56
:1006F0002700009A3100380002F06AFA2800010051
:10070000C9B20B2909DA60490200D2B289184978C6
:100710000200D2B2A154401CF1E75C485A490A7B5E
:100720004B7B1B0213435A05520D824203DBE27AD4
:1007300001231343E3724A7BD2B2D208D2B28B7B3D
:100740005B0113435A05520D824203DBE27A022316
:100750001343E3728A7BD2B29209D2B2CB7B9B0065
:1007600013430A7C92021A435205520D824203DB64
:10077000E27A04231343E3720A7CD2B25208D2B263
:100780004B7CDB0113435A05520D824203DBE27AB4
:1007900008231343E3724A7CD2B21209D2B28B7C93
:1007A0001B0113435A05520D824203DBE27A1023E8
:1007B0001343E3728A7CD2B2D209D2B2CB7C5B0003
:1007C00013430A7D52021A435205520D824203DB43
:1007D000E27A20231343E3720A7DD2B29208D2B2A6
:1007E0004B7D9B0113435A05520D824203DBE27A93
:1007F00040231343E3724A7DD2B25209D2B28B7DB9
:10080000DB001343834203DBE07A80220243E2727F
:10081000C87DC00703D5207B012202432273C87D17
:100820004010C00703D5207B022101432173207BA8
:100830001749097809010143217328000100C9B251
:10084000042909DA13490200D2B2895C0200D2B24B
:10085000A2185173401CF1E71221200002F0E0F9C8
:10086000010089B2090AA1740100E174F7BD00001A
:10087000F63F0000FB020000A086010000A1BC338F
:100880004C0000207C000020300000208A03000083
:100890008A0000200000002000B5010000200200B6
:1008A0000B00DBB2002B03D0022B0DD006D311E0DE
:1008B0009B4803681800C007C00F0BE09948036805
:1008C0001800C007C00F05E0A84803681800C0075B
:1008D000C00FFFE7C0B200BD10B5010000200A0044
:1008E000D2B2002A03D0022A0DD006D311E0A04ACA
:1008F00013680124A34313600DE09E4A136801248A
:10090000A343136007E09C4A13680124A3431360C8
:1009100001E001221000C0B210BD10B5010000209E
:100920000A00D2B2002A03D0022A0FD007D314E063
:10093000924A13688024E4001C4314600FE0904A3C
:1009400013688024E4001C43146008E0A24A136882
:100950008024E4001C43146001E001221000C0B2B6
:1009600010BD10B504002000C0B2002803D002283A
:1009700009D004D30BE099480068804707E0984805
:100980000068804703E0AC4800688047FFE710BD7F
:1009900070B5020000201300DBB2002B03D0022B45
:1009A0007BD03DD3B6E00D78744B1E68A34C344029
:1009B0006D028026B600354025431D604D781E68C7
:1009C0009F4C34402D0280267600354025431D6023
:1009D0008D781C687026B4432D0170262E40264366
:1009E0001E60CD781C680826B443ED00082635400B
:1009F00025431D600D791C680426B443AD00042610
:100A0000354025431D604D791C680226B4436D00B6
:100A10000226354025431D608B68704C23607BE0C7
:100A20000D78574B1E68854C34406D028026B60009
:100A3000354025431D604D781E68814C34402D02A1
:100A400080267600354025431D608D781C68702611
:100A5000B4432D0170262E4026431E60CD781C68BD
:100A60000826B443ED000826354025431D600D7966
:100A70001C680426B443AD000426354025431D60A0
:100A80004D791C680226B4436D000226354025438B
:100A90001D60CB68524C23603EE00D784E4B1E68C3
:100AA000664C34406D028026B600354025431D60FB
:100AB0004D781E68624C34402D0280267600354009
:100AC00025431D608D781C687026B4432D01702667
:100AD0002E4026431E60CD781C680826B443ED00E6
:100AE0000826354025431D600D791C680426B44353
:100AF000AD000426354025431D604D791C68022653
:100B0000B4436D000226354025431D600B694A4CF5
:100B1000236001E001231800C0B270BD0000000096
:100B2000100C0040300C004010B5010000200A00FD
:100B3000D2B2002A03D0022A0DD006D311E00F4A08
:100B4000136801241C4314600DE00D4A136801244E
:100B50001C43146007E0204A136801241C431460FE
:100B600001E001221000C0B210BD0000500C004096
:100B7000140C0040340C0040540C00400C0C00409D
:100B80002C0C004030B5020000201300DBB2002B1B
:100B900003D0022B13D009D31AE02A4B1C68240C73
:100BA00024040D00ADB22C431C6013E0264B1C68DE
:100BB000240C24040D00ADB22C431C600AE0234B2E
:100BC0001C68240C24040D00ADB22C431C6001E011
:100BD00001231800C0B230BD4C0C00406000002062
:100BE0006400002030B5020000201300DBB2002BAF
:100BF00003D0022B13D009D31AE0154B1C68240C28
:100C000024040D00ADB22C431C6013E0114B1C6892
:100C1000240C24040D00ADB22C431C600AE00E4BE2
:100C20001C68240C24040D00ADB22C431C6001E0B0
:100C300001231800C0B230BD68000020FFFDFFFF97
:100C4000FFFEFFFF000C0040200C0040400C004065
:100C5000040C0040240C0040440C004000B501008E
:100C60000022002901D1002005E0022902D3521CF4
:100C70004908FAE7100000BD00B50200002A07D0BD
:100C80000B00591E002B03D000231370521CF7E7F2
:100C900000BDF0B505002800451E002810D0094E03
:100CA0000020306080277F0407480068FA2189000F
:100CB00001F0E7FF381A040030688442EBD2FBE70A
:100CC000F0BD000018E000E00400002070B5030053
:100CD0001000C0B2002810D0D4481C00E4B2402557
:100CE0006C432418256801248C402C431D00EDB270
:100CF00040267543281804600FE0CC481C00E4B27D
:100D000040256C432418246801258D40AC431D0008
:100D1000EDB24026754328180460002070BDF8B578
:100D200004000D001600C2480168802252050A43E3
:100D3000026000222900C9B22000C0B2FFF7C6FF3E
:100D40002000C0B2402148432900C9B204225143C7
:100D50004018B8494018002101603000C0B2002896
:100D600010D0B5482100C9B24022514309180A6881
:100D70000121A94011432200D2B240235A43101846
:100D800001600FE0AC482100C9B24022514309186C
:100D900009680122AA4091432200D2B240235A435B
:100DA00010180160A54A01212000C0B24023584319
:100DB000801803680800A84083432000C0B2402781
:100DC0007843801803609E4A2000C0B240235843F5
:100DD000801803680800A84083432000C0B2402761
:100DE00078438018036097482200D2B240235A43C8
:100DF00012181268A9408A432100C9B240235943FE
:100E0000081802600020F2BDFEB504000D00099F25
:100E10000A9E87480168802252050A430260002228
:100E20002900C9B22000C0B2FFF750FF2000C0B2B5
:100E3000402148432900C9B20422514340187D494A
:100E400040180021016068460079002810D07A48D7
:100E50002100C9B24022514309180A680121A94062
:100E600011432200D2B240235A43101801600FE010
:100E700071482100C9B24022514309180968012272
:100E8000AA4091432200D2B240235A431018016075
:100E90003000C0B2002810D06B482100C9B24022F7
:100EA000514309180A680121A94011432200D2B216
:100EB00040235A43101801600FE063482100C9B273
:100EC00040225143091809680122AA409143220097
:100ED000D2B240235A43101801606846007A0028B5
:100EE00010D056482100C9B24022514309180A685F
:100EF0000121A94011432200D2B240235A431018C5
:100F000001600FE04D482100C9B240225143091849
:100F100009680122AA4091432200D2B240235A43D9
:100F20001018016008A80078002810D0444821005B
:100F3000C9B24022514309180A680121A94011434E
:100F40002200D2B240235A43101801600FE03C48FF
:100F50002100C9B240225143091809680122AA4060
:100F600091432200D2B240235A4310180160380046
:100F7000C0B2002810D033482100C9B240225143EA
:100F800009180A680121A94011432200D2B2402366
:100F90005A43101801600FE02A482100C9B24022CC
:100FA0005143091809680122AA4091432200D2B294
:100FB00040235A43101801600020FEBD70B5D2B224
:100FC000002A01D0012200E000221300DBB2002B36
:100FD00010D01E4B0400E4B240256C43E418256891
:100FE00001248C402C430500EDB240267543EB18DC
:100FF0001C600FE0154B0400E4B240256C43E4187C
:10100000246801258D40AC430500EDB240267543B0
:10101000EB181C6070BDC0B2402250430C4A8018CF
:101020000268CA401000C007C00F70470C0D024094
:1010300020200040000C0240000D0240200D024024
:10104000240D02402C0D02401C0D0240080D0240F0
:10105000040D0240F0B5020052B2002A1CD4032253
:101060004F4B040064B2A40804256C431C59FF25AF
:101070001600064008277E43B540AC438D01EDB213
:1010800002400826724395402543020052B292085E
:10109000042462439D5022E00F24704A032305007C
:1010A0006DB22540083DAD0804267543060076B2B2
:1010B0003440083CA408042674431659FF27BC4654
:1010C0001C00044008277C436746A740BE438C01B0
:1010D000E4B2034008277B439C4034435451F0BDA5
:1010E0005648574901605E49016070475D48016894
:1010F000734A0A400260704770B5040025005948E1
:10110000006800098607B60F2800C0B2002805D085
:10111000022808D003D3032809D00CE00DE00620F4
:1011200000F0B2F909E0032000F0DEF905E0052047
:1011300000F00CFA01E0042031E07A4840490160F7
:10114000474901602800C0B2012803D03000C0B276
:10115000012804D19C48016804220A43026001214D
:101160002800C0B200F02AFA2800C0B200F0AAF8A5
:101170000028F9D02800C0B200F083F80021300028
:10118000C0B200F01BFA2800C0B2012804D08E487B
:10119000016804229143016001F0CAFD002070BD86
:1011A00000E400E0FEB50020040001006A46874B21
:1011B0001D68156001AA864B60CB60C2083B083AE7
:1011C0000325284B1A6816092A0032401600F6B289
:1011D000002E05D0022E1BD024D3032E24D026E0CF
:1011E0007C4E684637687F0A3D40405D8F4D6843BE
:1011F0008F4DA8420BD18F4C248821000C00A4B243
:1012000035686D056D0DAC4201D18B4C20000EE0B0
:1012100001A88A4D2D682E00B605F60F04256E43F1
:10122000805904E0974802E080200002FFE71B6835
:101230009B095B075B0FD840FEBD00000820004003
:101240005A5A000010B50024FFF7ACFF05490968A1
:10125000490A8907890FC84010BD00001CED00E055
:10126000A5A500000020004010B504002078FFF77D
:1012700043FF607800F0B0F8A07800F0E1F80020BB
:1012800010BD38B505000024FFF72AFF2800C0B2C2
:10129000002803280BD893480168302291432A0084
:1012A000D2B21201302313400B43036003E0FFF777
:1012B0001DFF042004002000C0B232BD0000000069
:1012C000FF87FFFF00B5010000200A00D2B2002A0C
:1012D00005D0022A13D00AD3032A18D01FE03D4AB2
:1012E0001268D20A1300DB07DB0F180017E0964ADA
:1012F000126892091300DB07DB0F18000FE04F4A5A
:101300001268120B1300DB07DB0F180007E0A64A78
:10131000126892091300DB07DB0F1800FFE7C0B269
:1013200000BD00002C00024010B5010000200A00A2
:10133000D2B2022A07D042D3042A1CD00FD3062AE5
:1013400031D024D33BE0994A13889BB2214A1468D8
:10135000E40AE4025B055B0D2343136031E0944A29
:1013600013889BB21B4A1468E40AE4025B055B0D18
:101370002343136025E08F4A13889BB2154A1468F3
:10138000E40AE4025B055B0D2343136019E0294A7C
:1013900013889BB20F4A1468E40AE4025B055B0DF4
:1013A000234313600DE0844A13889BB2094A1468F2
:1013B000E40AE4025B055B0D2343136001E00422B1
:1013C0001000C0B210BD000020000240AC30000090
:1013D000A43000000C20004038B504002000C0B24A
:1013E000401E01280BD9C01E09D0001F07D00838A5
:1013F00005D0103803D0203801D0403814D1FFF781
:101400006FFE2000C0B2FFF729FC010035480268DA
:10141000B34B13400A00D2B29201E0256D00154093
:101420001D430560002000E0042032BD40420F0053
:1014300000366E01020C100040865101142000405D
:1014400038B504002000C0B2401E012803D9C01ED8
:1014500001D0001F14D1FFF743FE2000C0B2FFF7F8
:10146000FDFB01001F480268AC4B13400A00D2B2DA
:101470005202C025ED0015401D430560002000E02C
:10148000042032BD0048E80110B5010000200A0028
:10149000D2B2032A06D021D3052A11D008D3062AB6
:1014A00016D01BE0284A13683024A343136017E0CA
:1014B000254A13683024A34310241C4314600FE012
:1014C000214A13683024A34320241C43146007E0FE
:1014D0001D4A136830241C43146001E004221000EC
:1014E000C0B210BD0020004010B5010000200A006D
:1014F000D2B2002A05D0022A12D008D3032A18D06B
:101500001EE0874A1368874C1C4014601AE0844A26
:101510001368844C1C408023DB002343136011E0DC
:101520007F4A13687F4C1C4080231B0123431360B8
:1015300008E07B4A1368C02424011C43146001E0C6
:1015400004221000C0B210BD1020004010B50100F0
:1015500000200A00D2B2032A06D021D3052A11D0D6
:1015600008D3062A16D01BE00F4A13683024A34381
:10157000136017E00C4A13683024A34310241C4363
:1015800014600FE0084A13683024A34320241C434E
:10159000146007E0044A136830241C43146001E01F
:1015A00004221000C0B210BD18200040080C10002A
:1015B000060C1000040C1000000C1000F1B582B0F5
:1015C0000D0000263400FFF78BFDEDB2002D01D099
:1015D000012500E03500544E306800906846007ADE
:1015E000002867D002282DD038D303286ED1306868
:1015F00080214905014331604C4801681022914324
:101600002A00D2B2120110231A400A430260016874
:10161000202291432A00D2B2520120231A400A43C9
:1016200002606C4801680F220A4302606B4801683F
:10163000082291432A00D2B2D20008231A400A435A
:10164000026047E065480168042291432A00D2B253
:10165000920004231A400A4302603BE03068802174
:1016600049050143316002200221C9435A4A1368E7
:101670000B402F00FFB27F0007401F431760176821
:1016800004239F43BC462B00DBB29B0004273B4056
:1016900067463B431360524A13680F271F43176086
:1016A0004E4A136819402B00DBB25B001840084318
:1016B00010600FE049480168012291432A00D2B22C
:1016C0001300DB07DB0F0B43036003E0FFF70EFDA6
:1016D00004200400009830602000C0B2FEBD00006D
:1016E0003FFEFFFF30B5020000231800C9B20029F9
:1016F00001D00123FFE71900C9B2002906D03949FA
:101700000C680125954025430D6005E035490C68BE
:1017100001259540AC430C60C0B230BDFFF9FFFF1E
:1017200014200040FFF3FFFF202000404C0D02403A
:1017300010B50400002C01D104204AE029480168BA
:10174000802252040A4302602078002805D0022833
:101750000CD014D3032819D01EE023480168234A73
:101760000A40802109051143016017E01E48016805
:101770001E4A0A408021C904114301600EE01A4844
:101780000168C02212050A43026007E0164801689A
:10179000164A0A40026001E004201AE0617812480B
:1017A0000268134B134049068022920411401943EA
:1017B00001606068401E0F49086003210020C0439B
:1017C000FFF748FC00200C49086001200B49086025
:1017D000002010BD182000400C0D024000200040E9
:1017E000102000402020004034200040FFFFFFF385
:1017F000FFFFFFFD14E000E018E000E010E000E073
:1018000000B5010049B2002905D40121C206D20E5B
:101810009140414A116000BD00B5010049B2002964
:1018200009D40121C206D20E91403C4A1160BFF397
:101830004F8FBFF36F8F00BD00B5010049B2002983
:1018400005D40121C206D20E9140354A116000BD77
:10185000F0B5020052B2002A1CD40322314B04001E
:1018600064B2A40804256C431C59FF2516000640E9
:1018700008277E43B540AC438D01EDB202400826F7
:10188000724395402543020052B2920804246243F9
:101890009D5022E00F24244A032305006DB2254009
:1018A000083DAD0804267543060076B23440083C76
:1018B000A408042674431659FF27BC461C000440A4
:1018C00008277C436746A740BE438C01E4B203402F
:1018D00008277B439C4034435451F0BD70B5010050
:1018E0000022100013001300DBB2022B12D20F4BA8
:1018F0000C00E4B21500EDB2142675435D59AC42FC
:1019000006D11400E4B214256C431B19180001E041
:10191000521CE8E770BD000000E100E080E100E05B
:1019200080E200E000E400E01CED00E008000020A0
:1019300070B505000C0000262800C0B2FFF7CEFFEE
:101940000100002901D1042017E02000C0B20028C6
:1019500002D0012807D00DE0486840680222024307
:101960004868426008E048684068012202434868CD
:10197000426001E0042000E0002070BD70B5050069
:101980000C0000262800C0B2FFF7A8FF01000029C4
:1019900001D1042017E02000C0B2002802D00128A5
:1019A00007D00DE048684068022290434A685060C2
:1019B00008E048684068012290434A68506001E0AE
:1019C000042000E0002070BD70B505000C0000266A
:1019D0002800C0B2FFF782FF0100002901D10420D6
:1019E0000CE048684068C02290432200D2B29201C5
:1019F000C0231340034348684360002070BD70B5A6
:101A000005000C0000262800C0B2FFF767FF0100A8
:101A1000002901D1042016E0002C13D020784A6858
:101A2000526820239A4340012023184010434A68FB
:101A300050602078012805D160784A689060A078CD
:101A40004A68D060002070BD70B505000C0000260B
:101A50002800C0B2FFF742FF0100002901D1042095
:101A60000CE048684068082290432200D2B2D200BD
:101A700008231A40024348684260002070BDF3B555
:101A800081B014000026350068460079FFF726FF74
:101A90000700002F01D0002C01D1002024E0607845
:101AA00079684968114A0A4040028021890008404B
:101AB0001043796848602078002805D0022803D0B8
:101AC00003D3032801D00DE00CE0002602986178D2
:101AD000491C484361682022514301F0D2F8301A72
:101AE0000500FFE7280080B2FEBD0000FFFDFFFFFC
:101AF00070B505000C0000262800C0B2FFF7EEFE0E
:101B00000100002901D104200CE04868406810223F
:101B100090432200D2B2120110231A4002434868B7
:101B20004260002070BDF8B504000F0000263500AB
:101B30002000C0B2FFF7D2FE0100002901D104202D
:101B40001EE03800C0B2002803D002280FD007D30F
:101B500014E04868006902005207D20F15000DE03A
:101B6000486800690200D207D20F150006E04868F5
:101B7000006902009207D20F1500FFE72800C0B2EB
:101B8000F2BD70B505000C0000262800C0B2FFF7BA
:101B9000A5FE0100002901D104201FE02000C0B2F1
:101BA000002803D002280FD007D314E0486840690A
:101BB000042290434A6850610FE04868406901225E
:101BC00090434A68506108E04868406902229043A7
:101BD0004A68506101E0042000E0002070BDF8B5C3
:101BE00004000F0000262000C0B2FFF777FE0500BA
:101BF000002D01D1042015E002212000C0B2FFF722
:101C0000C0FF3800C0B26968086002212000C0B27D
:101C1000FFF789FF0028F8D002212000C0B2FFF7AB
:101C2000B0FF0020F2BD38B5040000252000C0B28E
:101C3000FFF754FE0100002901D1042002E04868AA
:101C40000068C0B232BD70B5060000253000C0B2D9
:101C5000FFF744FE0400002C30D0012560680069C5
:101C60008008284000280AD000213000C0B2FFF7C9
:101C700088FFE068002801D0E06880471EE06068C7
:101C800000692840002809D001213000C0B2FFF7C8
:101C900078FF2069002801D02069804760680069CA
:101CA00040080540002D09D002213000C0B2FFF7E6
:101CB00068FFA068002801D0A068804770BD38B5D3
:101CC00005002C00A41D200040B2FFF7B5FD032144
:101CD000200040B2FFF7BCFD200040B2FFF790FDAE
:101CE00031BD38B505002C00A41D200040B2FFF71F
:101CF000A3FD0321200040B2FFF7AAFD200040B25F
:101D0000FFF78AFD31BDFEB504000D0001206946D4
:101D10000870002701972000C0B2FFF7DFFD060022
:101D2000002E01D104202EE0002D01D104202AE054
:101D300029782000C0B2FFF747FE6946087068683E
:101D4000002806D069682000C0B2FFF758FE694637
:101D50000870A868002808D0A8684068F060A868E3
:101D600080683061A8680068B060287B012804D1D1
:101D70002000C0B2FFF7A3FF03E02000C0B2FFF7CE
:101D8000B0FF3800C0B2FEBD00B501000020020067
:101D90000B00DBB2002B02D0012B06D00BE0AC48CD
:101DA00003681800C007C00F05E0A94803681800C1
:101DB0008007C00FFFE7C0B200BD10B501000120D1
:101DC00002000B00DBB2002B02D0012B14D027E065
:101DD000324803681B0C1B04314C1C43046003682D
:101DE0001B0C1B042F4C1C430460C24803680124D5
:101DF000A3430360002013E0284803681B0C1B0466
:101E0000274C1C43046003681B0C1B04254C1C431B
:101E10000460B84803680224A34303600020FFE77E
:101E2000C0B210BD10B50400B3480068804710BDB3
:101E300010B50100012002000B00DBB2002B02D024
:101E4000012B14D027E0154803681B0C1B04144C0D
:101E50001C43046003681B0C1B04124C1C430460ED
:101E6000A64803684024A3430360002013E00B4806
:101E700003681B0C1B040A4C1C43046003681B0C06
:101E80001B04084C1C4304609C4803682024A343A3
:101E900003600020FFE7C0B210BD00002C0002402C
:101EA0005A5A0000A5A50000F1B500220800C0B2F2
:101EB000042802DB0420C0B2C9E09148914B1C68A1
:101EC000240C240404431C608F4C1D682D0C2D042D
:101ED00025431D60B74D2E68760A760220278F4075
:101EE000FF05FF0D37432F601D682D0C2D040543A2
:101EF0001D601D682D0C2D0425431D60AE4D2E6800
:101F0000FF27BE4317278F40FFB237432F601D685E
:101F10002D0C2D0405431D601D682D0C2D0425433B
:101F20001D60A64D2E68FF27BE431B278F40FFB2C2
:101F300037432F601D682D0C2D0405431D601D685F
:101F40002D0C2D0425431D609D4D2E68B60CB60446
:101F50009C4F8F40BF03BF0B37432F601D682D0C74
:101F60002D0405431D601D682D0C2D0425431D60A7
:101F7000954D2E68760D7605944F8F40FF02FF0A2F
:101F800037432F601D682D0C2D0405431D601D680F
:101F90002D0C2D0425431D608D4D2E68360B360308
:101FA00018278F403F053F0D37432F601D682D0CCC
:101FB0002D0405431D601D682D0C2D0425431D6057
:101FC000844D2E68360B3603F0278F403F053F0DBA
:101FD00037432F601D682D0C2D0405431D601D68BF
:101FE0002D0C2D0425431D607B4D2E68760B76034A
:101FF000FA27BF008F40FF04FF0C37432F600D000E
:10200000EDB2032D0FD11D682D0C2D04284318604F
:102010001868000C000404431C603848036804245A
:102020001C4304600EE01D682D0C2D04284318602D
:102030001868000C000404431C6030480368042442
:10204000A343036000982C4B18601000C0B2F2BD8F
:1020500024000240F3B581B0002069460870019861
:1020600080210902884202D30420C0B240E0244803
:1020700024490A68120C120402430A60224A0B68BF
:102080001B0C1B0413430B607D4B1C687D4D2543CB
:102090001D6001247C4D2E6836092640002EF8D1A3
:1020A0000E68360C360406430E600E68360C360495
:1020B00016430E602E680327BE4326432E606E46ED
:1020C000367A019F3E702E6836092640002EFAD1DE
:1020D0000C68240C2404204308600868000C0004E9
:1020E00002430A601868000C000418606846007813
:1020F000FEBD0000280002406C00002020000240CD
:102100005A5A00002C000240A5A50000F3B581B08A
:10211000002069460870019880210902884204D293
:10212000012001990140002902D00420C0B23FE003
:102130005649574A13681B0C1B040B431360554B3D
:102140001468240C24041C4314604D4C25684D4E27
:102150002E4326604C4D2E6836090640002EF9D1DC
:102160001668360C36040E4316601668360C3604B4
:102170001E4316602E680327BE4306432E606E463C
:102180003689019F3E802E6836090640002EFAD11E
:102190001068000C0004014311601068000C00047A
:1021A000034313602068000C000420606846007838
:1021B000FEBD000000000240040002400800024092
:1021C0000C0002405046000010000240E0220200D5
:1021D00014000240180002401C000240F1B581B01A
:1021E000002001006A46117001998022120291427A
:1021F00002D30420C0B241E02449254A13681B0CD5
:102200001B040B431360234B1468240C24041C434D
:102210001460214C24681B4D25431F4C256001246C
:10222000194D2E6836092640002EF8D11668360C56
:1022300036040E4316601668360C36041E431660CC
:102240002E680327BE43022737432F60019E30705C
:102250002868000920400028FAD11068000C00040A
:10226000014311601068000C0004034313600A4826
:102270000168090C0904016068460078F6BD000099
:1022800030000240FFFF0000200002405A5A0000C8
:102290002C000240A5A500003000024000B501005E
:1022A00049B2002905D40121C206D20E9140324A1A
:1022B000116000BD00B5010049B2002909D4012117
:1022C000C206D20E91402D4A1160BFF34F8FBFF36B
:1022D0006F8F00BD00B5010049B2002905D401216E
:1022E000C206D20E9140264A116000BDF0B5020030
:1022F00052B2002A1CD40322224B040064B2A40868
:1023000004256C431C59FF251600064008277E4310
:10231000B540AC438D01EDB20240082672439540B2
:102320002543020052B29208042462439D5022E0E9
:102330000F24154A032305006DB22540083DAD0862
:1023400004267543060076B23440083CA4080426EF
:1023500074431659FF27BC461C00044008277C43E1
:102360006746A740BE438C01E4B2034008277B4385
:102370009C4034435451F0BD00E100E080E100E0B6
:1023800080E200E000E400E01CED00E0F8B50600AB
:102390000C0017003500280040B2FFF79BFF21001A
:1023A000C9B2280040B2FFF7A1FF3800C0B201282F
:1023B00004D1280040B2FFF771FF03E0280040B2CB
:1023C000FFF778FFF1BD80B500200090009800284D
:1023D000FCD001BD80B5002000BF00BF01BD80B5AD
:1023E000012000BF00BF01BD80B5022000BF00BFBB
:1023F00001BD80B5032000BF00BF01BD80B5002036
:10240000FFF721FC01BD80B50120FFF71CFC01BDD9
:1024100080B5002000BF00BF01BD80B5002000F0E6
:10242000ABFC01BD80B5002000BF00BF01BD80B581
:102430000020FEF796FA01BD80B50120FEF791FA63
:1024400001BD80B50220FEF78CFA01BD80B50020E9
:1024500000BF00BF01BD80B5042000BF00BF01BDAB
:1024600080B5052000BF00BF01BD80B5062000BFBC
:1024700000BF01BD80B5002000BF00BF01BD80B519
:10248000002000F060F801BD80B5002000BF00BF53
:1024900001BD80B5002000BF00BF01BD80B5002098
:1024A00000BF00BF01BD80B5012000BF00BF01BD5E
:1024B00080B5002000BF00BF01BD80B50020FFF740
:1024C000B1FC01BD80B5002000BF00BF01BDFEE72B
:1024D00025490A680F239A430300DBB21B071B0F31
:1024E00013430B60704738B5040001252078FFF7CF
:1024F000EFFF6068002802D060681C4908606078BF
:1025000019490A6820239A434001202318401043A8
:1025100008606078002804D0012203211620FFF70C
:1025200035FF0020C0B232BD012111481E220260D9
:10253000E12202600020C0B270470D481E210160F8
:10254000E1210160704780B5074800680100090675
:10255000C90F002907D0FFF7E7FF044801680029E9
:1025600001D00068804701BD840C00408400002039
:10257000800C0040F1B586B0002002900020019050
:10258000002000900123002203210320FEF73CFCE1
:1025900000200290002001900020009001230022E2
:1025A00004210320FEF730FC1025ED43764F3868F8
:1025B000284038600524754801680722914321436B
:1025C0000160734E306828403060012000F051FCFB
:1025D00000200290012001900020009001230022A1
:1025E00002210320FEF710FC002202210320FEF747
:1025F000E5FC002202210320FEF7E0FC0A20FEF7A2
:1026000048FB012202210320FEF7D8FC0A20FEF736
:1026100040FB01210620FFF765F85E4801680822AB
:10262000914301605C490A6807239A4322430A6088
:102630005A490A68082313430B6002682A40026063
:102640005748026807239A432243026008680540FE
:102650000D6064480168644A0A4002602020C0435B
:1026600039680140396061490A6807239A43144375
:102670000C60316808403060002003A90200CA7075
:1026800002008A7002000A7101220A7002004A7078
:10269000059003A800F0A4FB422000F049FA0400D2
:1026A0002000C0B2122801D0002020E000F0A9F8DC
:1026B000069800F0E9F800210E2000F04BFA002106
:1026C0000F2000F047FA0C2000F032FA03210143FA
:1026D000C9B20C2000F03EFA0421262000F03AFA9C
:1026E0000121112000F096F800F082F8012007B0D7
:1026F000F0BD10B5040000F031F8002801D0002032
:1027000013E000F075F82000C0B2002802D000F0FD
:10271000EBF901E000F0D8F900210D2000F01AFAE1
:102720000021222000F016FA012010BD10B504008F
:10273000032000F022FA8321012000F00BFA200090
:10274000C0B2002808D1122000F0F2F90007FAD533
:102750000821122000F0FEF9012010BD80B50120F3
:1027600000F0E6F98007800F032801D1012009E07D
:10277000122000F0DDF9000703D50821122000F037
:10278000E9F9002002BD00004C0D0240500C02404F
:10279000400D02408C0D02408C0C0240800D024026
:1027A000900C0240F8B507000C00222000F0C0F9A0
:1027B00006003019FF2802D9FF20801B04000025E5
:1027C000A54205D2795D002000F0C4F96D1CF7E741
:1027D000300021004118C9B2222000F0BBF92000CE
:1027E000F2BD0000040F0240FFDFFFFF540C024067
:1027F00080B5012000F0C1F98121012000F0AAF983
:1028000001BD80B5002000F0B8F98021012000F062
:10281000A1F901BD38B505000C00002C0CD1280031
:10282000C0B20F2801DB0E20050070212943C9B278
:10283000092000F08FF926E02800C0B212280EDB34
:102840002800C0B2152801DB14200500ED1E8721E9
:102850004D2000F07FF98C2000F013F90CE02800E7
:10286000C0B2022801DA0220050084214D2000F0C8
:1028700071F9642000F005F9A81E80210143C9B256
:10288000092000F067F931BD70B5060010480660F8
:102890003000F117C904420B1143C004914A0023D0
:1028A00000F026FB04000D002100090CC9B206202F
:1028B00000F050F92000010089B2090AC9B20720CE
:1028C00000F048F92100C9B2082000F043F970BDBA
:1028D0007000002080B51E2000F02AF9C0B2000967
:1028E000C0B202BD10B504002000C0B2062802DA52
:1028F0000620040005E02000C0B20D2801DB0C20FA
:1029000004002000C0B2062808D1C521312000F003
:1029100021F90C21372000F01DF907E0C3213120F7
:1029200000F018F90A21372000F014F91E2000F0F9
:10293000FFF80007000F21010143C9B21E2000F07B
:1029400009F900F04FF810BD80B51D2000F0F0F837
:102950000100C9B20909C9B200290ED0022910D05C
:102960000DD3042911D00ED3062912D00FD3082974
:1029700013D010D3092912D013E0624813E0624843
:1029800011E062480FE062480DE062480BE06248E7
:1029900009E0624807E0624805E0624803E06248F7
:1029A00001E00020C04302BD38B50400200080B221
:1029B0007E2801DA072506E0200080B2FB2801DA34
:1029C000082500E009251D2000F0B2F80007000FDF
:1029D000290009010143C9B21D2000F0BBF800F035
:1029E00001F831BD70B5FFF7AFFF05000124FFF717
:1029F00071FF21008140280000F040F90100FA2019
:102A0000800000F03BF90500112D00DA002426209B
:102A100000F08EF82100C9B2002902D00826064332
:102A200001E0F72606403100C9B2262000F092F8F6
:102A300070BD38B504002000C0B2052802DA0520B8
:102A4000040005E02000C0B2092801DB08200400D2
:102A50002500EDB22D1F1D2000F06AF8F122024082
:102A6000280041001143C9B21D2000F073F831BDA8
:102A700010B5040020000100C9B2392000F06AF846
:102A800010BD38B504001B252000C0B2792807DA34
:102A90002000C0B22D38052100F0F0F805000AE052
:102AA0002000C0B2F12806DA2000C0B21E300A2190
:102AB00000F0E4F80500E806C00E20210143C9B289
:102AC0000B2000F047F831BD80B5002017490860A1
:102AD0001D2000F02DF8FE2101401D2000F03AF8E5
:102AE00001BD00000048E80110B501240F48046052
:102AF0001D2000F01DF804432100C9B21D2000F084
:102B000029F810BD781E0000A0280000F03C00004D
:102B100040510000127A0000E4A2000024F40000FA
:102B200048E8010090D0030020A1070074000020B5
:102B300038B50400002000F09CF96006400E00F05B
:102B40009DF900F0B3F90500012000F092F928008A
:102B5000C0B232BD38B505000C00002000F089F984
:102B600080202843C0B200F089F92000C0B200F0F4
:102B700085F9012000F07DF931BD10B50400200079
:102B8000C0B200280AD1002203210320FEF716FA62
:102B9000002204210320FEF711FA18E02000C0B241
:102BA00003280AD1012203210320FEF707FA00229D
:102BB00004210320FEF702FA09E00022032103208A
:102BC000FEF7FCF9012204210320FEF7F7F910BDFE
:102BD0001206130A1A43130C1A4300BF094205D008
:102BE000830705D00270401C491EF9D170470000D0
:102BF0001300103906D330B41400150010393CC04E
:102C0000FCD230BC490700D30CC000D504C08900F9
:102C100002D30280801C002900D502707047FEE7B5
:102C200030B5020007480368074C1C4304600023CA
:102C30008B4204D2D45C054D2C705B1CF8E7006815
:102C400080B230BD04090240FFFF0000800902404D
:102C5000F446002804D4494200F013F8404260478B
:102C60004042002905D45FD000F00BF840424942B1
:102C70006047494200F005F84942604703460B436C
:102C8000E6D40022030A8B420BD203098B4219D2ED
:102C900043088B422ED2411A00D2014652411046BF
:102CA0007047FF2209023FD012068B4205D3121251
:102CB00009028B4201D31212090203098B4219D374
:102CC00000E0090AC3098B4201D3CB01C01A52416B
:102CD00083098B4201D38B01C01A524143098B42B5
:102CE00001D34B01C01A524103098B4201D30B019E
:102CF000C01A5241C3088B4201D3CB00C01A5241C3
:102D000083088B4201D38B00C01A524143088B4287
:102D100001D34B00C01A5241884200D3401A52419D
:102D2000CFD201461046704708B500F017F908BD2C
:102D300080B5FEF737FA0E49086001BD7047E0B56F
:102D40000220FEF7F1FA01210020FEF737FCFFF721
:102D5000EFFFFFF7F3FF08216846FDF78DFF012025
:102D600069464870034801906846FEF7E1FC07BDDC
:102D700004000020FFFFFF0080B55848006880472E
:102D800001BD00B5010000200A00D2B2102A1DD0FA
:102D9000202A13D0402A09D0802A1FD1504A126815
:102DA000D2091300DB07DB0F180017E04C4A12684A
:102DB00092091300DB07DB0F18000FE0484A126886
:102DC00052091300DB07DB0F180007E0444A1268C2
:102DD00012091300DB07DB0F1800FFE7C0B200BDCC
:102DE00038B504003F4800210160227803681025AF
:102DF000AB43120110252A401A430260A2780368EF
:102E00000825AB43D20008252A401A430260E27825
:102E100003680425AB43920004252A401A4302604C
:102E20006278042A03DB026880231343036002688C
:102E300063789B079B0F13430360294A1160016865
:102E400040220A4302602079012805D10122032192
:102E50000A20FFF79BFA04E0002203210A20FFF773
:102E600095FAA068002802D0A0681C4908600020DC
:102E700032BD0100C9B21D4A1160704770B504002F
:102E8000FA25AD00184E2000C0B230602800451E63
:102E9000002804D08020FFF774FF0128F6D1002D10
:102EA00001D1092001E03168002070BD38B5FA2455
:102EB000A4000D4D002028602000441E002804D0EE
:102EC0008020FFF75EFF0128F6D1002C01D10920F8
:102ED00001E02868C0B232BD000000008000002080
:102EE00008080040000800400C08004004080040AA
:102EF000124224D0994228D970B500251B4202D035
:102F00000C00002109E00024012649186441944284
:102F100000D3A41A7641F8D33100012601E07641AE
:102F200009D2001864416D41A41A9D41F7D2A4183A
:102F30005D41B619F5D3300022002B0070BD1B4255
:102F4000D8D108B500F00CF808BD01D19042D3D219
:102F500002000B00002100207047FEE77047FEE7EB
:102F6000704770B40123002413E00168001D19426A
:102F700002D04D466D1E49190C60091D121F042A0E
:102F8000FAD20D00960701D50C80AD1C1A4000D076
:102F90002C700268001D002AE7D170BC704730B564
:102FA00001684118446862088A188368E4070DD5EF
:102FB0004C461B190AE00C7864B2491C0D78491C78
:102FC0001D705B1C002C05D5641CF9D19142F2D117
:102FD0000C3030BD641EF1D5F8E7FEE7054800224D
:102FE000874500D9024404480260044880470448E9
:102FF000004700000000002008ED00E03F2D000029
:103000009930000010B5074979441831064C7C44CA
:10301000163404E0081D0A68891888470100A14297
:10302000F8D110BD080000002400000037FFFFFFAA
:103030005C000000300000200000000063FFFFFF84
:1030400078000000300000000000002000F00DF8C3
:10305000002801D0FFF7D6FF00BF00BF002000BF4F
:1030600000BFFDF7E3F900F002F80120704780B5DA
:1030700000F002F801BDFEE70746384600F002F80E
:10308000FBE7FEE780B500BF00BF024A1100182031
:10309000ABBEFBE72600020000BF00BF00BF00BFC1
:1030A000FFF7D4FF0080000000960000040810180D
:1030B000FEE7FEE7FEE7FEE70648454C4F00093D08
:1030C000F8000040F4000001FC0002010040F400A0
:04000005000030992E
:00000001FF
