:100000009001002039280000070A0000871700002F
:1000100000000000000000000000000000000000E0
:100020000000000000000000000000005B1600005F
:1000300000000000000000008F180000931800006E
:10004000951700009F170000A9170000B3170000C4
:1000500037280000D3280000BD170000C717000094
:10006000D1170000DF280000DB1700000D29000079
:10007000E51700000F290000EF170000F917000036
:10008000031800000D1800001718000021180000C8
:100090002B180000351800003F1800004918000018
:1000A00053180000112900005D18000067180000B7
:1000B00071180000132900007B180000851800004B
:1000C000F0B5020052B2002A1CD403224F4B0400A8
:1000D00064B2A40804256C431C59FF251600064091
:1000E00008277E43B540AC438D01EDB2024008269F
:1000F000724395402543020052B2920804246243A1
:100100009D5022E00F24704A032305006DB2254064
:10011000083DAD0804267543060076B23440083C1D
:10012000A408042674431659FF27BC461C0004404B
:1001300008277C436746A740BE438C01E4B20340D6
:1001400008277B439C4034435451F0BD56485749DF
:1001500001605E49016070475D480168734A0A406A
:100160000260704770B50400250059480068000916
:100170008607B60F2800C0B2002805D0022808D094
:1001800003D3032809D00CE00DE0062000F0B2F9FB
:1001900009E0032000F0DEF905E0052000F00CFA8C
:1001A00001E0042031E07A4840490160474901609C
:1001B0002800C0B2012803D03000C0B2012804D109
:1001C0009C48016804220A43026001212800C0B251
:1001D00000F02AFA2800C0B200F0AAF80028F9D0EE
:1001E0002800C0B200F083F800213000C0B200F057
:1001F0001BFA2800C0B2012804D08E4801680422EE
:100200009143016000F032FB002070BD00E400E08B
:10021000FEB50020040001006A46874B1D6815608A
:1002200001AA864B60CB60C2083B083A0325284BE5
:100230001A6816092A0032401600F6B2002E05D0C0
:10024000022E1BD024D3032E24D026E07C4E6846F9
:1002500037687F0A3D40405D8F4D68438F4DA8420F
:100260000BD18F4C248821000C00A4B235686D0599
:100270006D0DAC4201D18B4C20000EE001A88A4DDF
:100280002D682E00B605F60F04256E43805904E054
:10029000974802E080200002FFE71B689B095B078C
:1002A0005B0FD840FEBD0000082000405A5A0000F5
:1002B00010B50024FFF7ACFF05490968490A890712
:1002C000890FC84010BD00001CED00E0A5A500008E
:1002D0000020004010B504002078FFF743FF60784D
:1002E00000F0B0F8A07800F0E1F8002010BD38B5BB
:1002F00005000024FFF72AFF2800C0B200280328C9
:100300000BD893480168302291432A00D2B21201DF
:10031000302313400B43036003E0FFF71DFF04206D
:1003200004002000C0B232BD00000000FF87FFFFC4
:1003300000B5010000200A00D2B2002A05D0022A2E
:1003400013D00AD3032A18D01FE03D4A1268D20AFC
:100350001300DB07DB0F180017E0964A12689209BA
:100360001300DB07DB0F18000FE04F4A1268120B77
:100370001300DB07DB0F180007E0A64A126892099A
:100380001300DB07DB0F1800FFE7C0B200BD000061
:100390002C00024010B5010000200A00D2B2022A4F
:1003A00007D042D3042A1CD00FD3062A31D024D33D
:1003B0003BE0994A13889BB2214A1468E40AE4029C
:1003C0005B055B0D2343136031E0944A13889BB2B5
:1003D0001B4A1468E40AE4025B055B0D23431360C7
:1003E00025E08F4A13889BB2154A1468E40AE40298
:1003F0005B055B0D2343136019E0294A13889BB208
:100400000F4A1468E40AE4025B055B0D23431360A2
:100410000DE0844A13889BB2094A1468E40AE40296
:100420005B055B0D2343136001E004221000C0B2A2
:1004300010BD000020000240082900000029000033
:100440000C20004038B504002000C0B2401E012836
:100450000BD9C01E09D0001F07D0083805D01038AE
:1004600003D0203801D0403814D1FFF76FFE2000B0
:10047000C0B200F01FFA010035480268B34B1340C8
:100480000A00D2B29201E0256D0015401D430560BF
:10049000002000E0042032BD40420F0000366E0113
:1004A000020C1000408651011420004038B50400B1
:1004B0002000C0B2401E012803D9C01E01D0001F79
:1004C00014D1FFF743FE2000C0B200F0F3F90100A1
:1004D0001F480268AC4B13400A00D2B25202C0253A
:1004E000ED0015401D430560002000E0042032BDF2
:1004F0000048E80110B5010000200A00D2B2032A2A
:1005000006D021D3052A11D008D3062A16D01BE025
:10051000284A13683024A343136017E0254A136860
:100520003024A34310241C4314600FE0214A1368B5
:100530003024A34320241C43146007E01D4A1368A1
:1005400030241C43146001E004221000C0B210BD2E
:100550000020004010B5010000200A00D2B2002A9D
:1005600005D0022A12D008D3032A18D01EE0874AE9
:100570001368874C1C4014601AE0844A1368844C4A
:100580001C408023DB002343136011E07F4A136883
:100590007F4C1C4080231B012343136008E07B4AEF
:1005A0001368C02424011C43146001E004221000DD
:1005B000C0B210BD1020004010B5010000200A009C
:1005C000D2B2032A06D021D3052A11D008D3062A95
:1005D00016D01BE00F4A13683024A343136017E0C2
:1005E0000C4A13683024A34310241C4314600FE00A
:1005F000084A13683024A34320241C43146007E0F6
:10060000044A136830241C43146001E004221000E3
:10061000C0B210BD18200040080C1000060C1000DD
:10062000040C1000000C1000F1B582B00D00002683
:100630003400FFF78BFDEDB2002D01D0012500E065
:100640003500544E306800906846007A002867D024
:1006500002282DD038D303286ED130688021490577
:10066000014331604C480168102291432A00D2B204
:10067000120110231A400A430260016820229143AC
:100680002A00D2B2520120231A400A4302606C4869
:1006900001680F220A4302606B48016808229143F7
:1006A0002A00D2B2D20008231A400A43026047E06F
:1006B00065480168042291432A00D2B292000423C3
:1006C0001A400A4302603BE030688021490501433B
:1006D000316002200221C9435A4A13680B402F009F
:1006E000FFB27F0007401F431760176804239F4332
:1006F000BC462B00DBB29B0004273B4067463B43D4
:100700001360524A13680F271F4317604E4A13683D
:1007100019402B00DBB25B001840084310600FE06B
:1007200049480168012291432A00D2B21300DB0735
:10073000DB0F0B43036003E0FFF70EFD0420040012
:10074000009830602000C0B2FEBD00003FFEFFFFF9
:1007500030B5020000231800C9B2002901D00123DE
:10076000FFE71900C9B2002906D039490C680125F4
:10077000954025430D6005E035490C6801259540FD
:10078000AC430C60C0B230BDFFF9FFFF1420004045
:10079000FFF3FFFF202000404C0D024010B5040085
:1007A000002C01D104204AE029480168802252042B
:1007B0000A4302602078002805D002280CD014D308
:1007C000032819D01EE023480168234A0A408021EB
:1007D00009051143016017E01E4801681E4A0A40DE
:1007E0008021C904114301600EE01A480168C0224B
:1007F00012050A43026007E016480168164A0A40DB
:10080000026001E004201AE0617812480268134B8C
:100810001340490680229204114019430160606828
:10082000401E0F49086003210020C043FFF748FC29
:1008300000200C49086001200B490860002010BD11
:10084000182000400C0D0240002000401020004005
:100850002020004034200040FFFFFFF3FFFFFFFD9A
:1008600014E000E018E000E010E000E080B5FFF7E1
:10087000CFFC0E49086001BD7047E0B50220FFF7CC
:1008800089FD01210020FFF7CFFEFFF7EFFFFFF703
:10089000F3FF0821684600F01BF801206946487004
:1008A000034801906846FFF779FF07BD000000206C
:1008B000FFFFFF0000B501000022002901D1002048
:1008C00005E0022902D3521C4908FAE7100000BDD6
:1008D00000B50200002A07D00B00591E002B03D0E0
:1008E00000231370521CF7E700BDF0B50500280087
:1008F000451E002810D0094E0020306080277F045C
:1009000007480068FA21890000F025F8381A040029
:1009100030688442EBD2FBE7F0BD000018E000E055
:1009200000000020F446002804D4494200F013F8E7
:10093000404260474042002905D45FD000F00BF8E8
:10094000404249426047494200F005F84942604749
:1009500003460B43E6D40022030A8B420BD2030961
:100960008B4219D243088B422ED2411A00D2014643
:10097000524110467047FF2209023FD012068B42B7
:1009800005D3121209028B4201D312120902030984
:100990008B4219D300E0090AC3098B4201D3CB0172
:1009A000C01A524183098B4201D38B01C01A5241B4
:1009B00043098B4201D34B01C01A524103098B42B8
:1009C00001D30B01C01A5241C3088B4201D3CB00A3
:1009D000C01A524183088B4201D38B00C01A524186
:1009E00043088B4201D34B00C01A5241884200D3C6
:1009F000401A5241CFD201461046704708B500F068
:100A000001F808BD7047FEE7F1B586B000200290FE
:100A100000200190002000900123002203210320E8
:100A200000F010FC002002900020019000200090B7
:100A3000012300220421032000F004FC1025ED43D3
:100A40007E4F38682840386005247D4801680722B9
:100A50009143214301607B4E306828403060012083
:100A600000F087FD002002900120019000200090FE
:100A7000012300220221032000F0E4FB00220221D6
:100A8000032000F0B9FC00220221032000F0B4FC96
:100A90000A20FFF72AFF01220221032000F0ACFC0C
:100AA0000A20FFF722FF01210620FFF751FE6648CA
:100AB000016808229143016064490A6807239A4348
:100AC00022430A6062490A68082313430B600268E4
:100AD0002A4002605F48026807239A43224302606B
:100AE000086805400D6061480168614A0A4002607B
:100AF0002020C04339680140396066490A680723ED
:100B00009A4314430C60316808403060002003A908
:100B10000200CA7002008A7002000A7101220A7083
:100B200002004A70059003A800F0DAFC422000F0B1
:100B30009BFA04002000C0B2122801D0002020E05F
:100B400000F0CAF8069800F009F900210E2000F024
:100B50009DFA00210F2000F099FA0C2000F084FA91
:100B600003210143C9B20C2000F090FA0421262091
:100B700000F08CFA0121112000F0B7F800F0A3F882
:100B8000012007B0F0BDF8B50600002427001220B0
:100B900000F06AFA0500012E08DB00F02EFA3000A2
:100BA0000100C9B2222000F071FA01E000F018FA49
:100BB00028000100C9B2122000F068FA6020284025
:100BC000402819D17848046078480068002804D08B
:100BD000222000F049FA070003E0132000F044FA55
:100BE0000700102000F040FA0100C9B20D2000F00B
:100BF0004DFA00F068F80FE0012000F035FA862881
:100C00000AD000210D2000F041FA062000F051FA30
:100C10008621012000F03AFA3800F2BD80B51A2092
:100C200000F022FA62490968624A914201DAA4217D
:100C300000E09D21C0B2401A00B202BD4C0D02403E
:100C4000500C0240400D02408C0D02408C0C0240C2
:100C5000800D0240900C024080B5132000F004FA91
:100C6000C0B251490968401A02BD0000040F024099
:100C7000FFDFFFFF80B5FFF7EFFF002802D1002064
:100C8000C04306E048480168491C0160002000F0AC
:100C9000EBF902BD540C024010B50400052000F031
:100CA00008FA012C08DB00F0A8F920000100C9B205
:100CB000222000F0EBF901E000F092F985210120FB
:100CC00000F0E4F910BD80B5012000F0F2F98121B7
:100CD000012000F0DBF901BD80B5002000F0E9F94A
:100CE0008021012000F0D2F901BD38B504000D00CB
:100CF000002D10D1002C02D50020040003E00F2CA1
:100D000001DB0E200400200070210143C9B209203C
:100D100000F0BCF921E0122C0CDB152C01DB1420B7
:100D20000400E41E87214D2000F0B0F98C2000F073
:100D300034F90AE0022C01DA0220040084214D205B
:100D400000F0A4F9642000F028F92000801E802122
:100D50000143C9B2092000F099F931BD70B5060010
:100D6000134806603000F117C904420B1143C00458
:100D7000644A002300F03CFC04000D002100090C33
:100D8000C9B2062000F082F92000010089B2090AE8
:100D9000C9B2072000F07AF92100C9B2082000F09A
:100DA00075F970BD000000006C000020700000208C
:100DB0006800002040DD4A1F80B51E2000F054F975
:100DC000C0B20009C0B202BD10B50400062C02DAA0
:100DD0000620040003E00D2C01DB0C200400062C8F
:100DE00008D1C521312000F051F90C21372000F045
:100DF0004DF907E0C321312000F048F90A213720DE
:100E000000F044F91E2000F02FF90007000F210028
:100E100009010143C9B21E2000F038F900F074F84E
:100E200010BD80B51D2000F01FF90100C9B20909ED
:100E3000C9B200290ED0022910D00DD3042911D037
:100E40000ED3062912D00FD3082913D010D30929A5
:100E500012D013E0704813E0704811E070480FE0C2
:100E600070480DE070480BE0704809E0704807E0FA
:100E7000704805E0704803E0704801E00020C0437E
:100E800002BD000038B504006D48844201DA002537
:100E900028E06C48844201DA012523E06A48844254
:100EA00001DA02251EE06948844201DA032519E0CF
:100EB0006748844201DA042514E06648844201DA76
:100EC00005250FE06448844201DA06250AE06348FC
:100ED000844201DA072505E06148844201DA0825E9
:100EE00000E009251D2000F0BFF80007000F2900D1
:100EF00009010143C9B21D2000F0C8F800F004F850
:100F000031BD00000048E80170B5FFF78AFF050019
:100F10000124FFF751FF210081402800FFF718FD51
:100F20000100FA208000FFF713FD0500112D00DA03
:100F30000024262000F098F82100C9B2002902D030
:100F40000826064301E0F72606403100C9B22620F4
:100F500000F09CF870BD38B50400052C02DA0520BD
:100F6000040003E0092C01DB08200400251F1D20DC
:100F700000F07AF8F1220240280041001143C9B282
:100F80001D2000F083F831BD10B5040020000100E1
:100F9000C9B2392000F07AF810BD38B504001B251D
:100FA0002000C0B2792807DA2000C0B22D38052110
:100FB000FFF7CEFC05000AE02000C0B2F12806DAF7
:100FC0002000C0B21E300A21FFF7C2FC0500E8066F
:100FD000C00E20210143C9B20B2000F057F831BDEB
:100FE00080B500201F4908601D2000F03DF8FE215B
:100FF00001401D2000F04AF801BD10B50124194838
:1010000004601D2000F030F804432100C9B21D2007
:1010100000F03CF810BD0000781E0000A028000081
:10102000F03C000040510000127A0000E4A20000F1
:1010300024F4000048E8010090D0030020A107003C
:10104000791E0000A1280000F13C00004151000081
:10105000137A0000E5A2000025F4000049E8010031
:1010600091D003007000002038B50400002000F08B
:1010700080FA6006400E00F081FA00F097FA050051
:10108000012000F076FA2800C0B232BD38B5050064
:101090000C00002000F06DFA80202843C0B200F060
:1010A0006DFA2000C0B200F069FA012000F061FA88
:1010B00031BD10B504002000C0B200280AD10022C2
:1010C0000321032000F098F900220421032000F0FE
:1010D00093F918E02000C0B203280AD101220321AD
:1010E000032000F089F900220421032000F084F994
:1010F00009E000220321032000F07EF901220421EF
:10110000032000F079F910BD70B503001000C0B2E3
:10111000002810D0CF481C00E4B240256C432418AE
:10112000256801248C402C431D00EDB240267543F8
:10113000281804600FE0C7481C00E4B240256C4347
:101140002418246801258D40AC431D00EDB24026D3
:10115000754328180460002070BDF8B504000D0028
:101160001600BD480168802252050A430260002231
:101170002900C9B22000C0B2FFF7C6FF2000C0B2EC
:10118000402148432900C9B2042251434018B349C1
:101190004018002101603000C0B2002810D0B048D3
:1011A0002100C9B24022514309180A680121A9400F
:1011B00011432200D2B240235A43101801600FE0BD
:1011C000A7482100C9B240225143091809680122E9
:1011D000AA4091432200D2B240235A431018016022
:1011E000A04A01212000C0B2402358438018036860
:1011F0000800A84083432000C0B2402778438018ED
:101200000360994A2000C0B2402358438018036805
:101210000800A84083432000C0B2402778438018CC
:10122000036092482200D2B240235A431218126837
:10123000A9408A432100C9B24023594308180260DB
:101240000020F2BDFEB504000D00099F0A9E8248F1
:101250000168802252050A43026000222900C9B2B7
:101260002000C0B2FFF750FF2000C0B24021484329
:101270002900C9B20422514340187849401800217E
:10128000016068460079002810D075482100C9B275
:101290004022514309180A680121A9401143220044
:1012A000D2B240235A43101801600FE06C4821006D
:1012B000C9B240225143091809680122AA4091434A
:1012C0002200D2B240235A43101801603000C0B24D
:1012D000002810D066482100C9B2402251430918A5
:1012E0000A680121A94011432200D2B240235A4387
:1012F000101801600FE05E482100C9B2402251433E
:10130000091809680122AA4091432200D2B2402361
:101310005A43101801606846007A002810D05148DE
:101320002100C9B24022514309180A680121A9408D
:1013300011432200D2B240235A43101801600FE03B
:1013400048482100C9B240225143091809680122C6
:10135000AA4091432200D2B240235A4310180160A0
:1013600008A80078002810D03F482100C9B24022C8
:10137000514309180A680121A94011432200D2B241
:1013800040235A43101801600FE037482100C9B2CA
:1013900040225143091809680122AA4091432200C2
:1013A000D2B240235A43101801603800C0B200285E
:1013B00010D02E482100C9B24022514309180A68B2
:1013C0000121A94011432200D2B240235A431018F0
:1013D00001600FE025482100C9B24022514309189D
:1013E00009680122AA4091432200D2B240235A4305
:1013F000101801600020FEBD70B5D2B2002A01D0E5
:10140000012200E000221300DBB2002B10D0194BA8
:101410000400E4B240256C43E418256801248C40A4
:101420002C430500EDB240267543EB181C600FE01D
:10143000104B0400E4B240256C43E41824680125F5
:101440008D40AC430500EDB240267543EB181C609F
:1014500070BD00000C0D024020200040000C024036
:10146000000D0240200D0240240D02402C0D0240D0
:101470001C0D0240080D024080B5584800688047A6
:1014800001BD00B5010000200A00D2B2102A1DD013
:10149000202A13D0402A09D0802A1FD1504A12682E
:1014A000D2091300DB07DB0F180017E04C4A126863
:1014B00092091300DB07DB0F18000FE0484A12689F
:1014C00052091300DB07DB0F180007E0444A1268DB
:1014D00012091300DB07DB0F1800FFE7C0B200BDE5
:1014E00038B504003F4800210160227803681025C8
:1014F000AB43120110252A401A430260A278036808
:101500000825AB43D20008252A401A430260E2783E
:1015100003680425AB43920004252A401A43026065
:101520006278042A03DB02688023134303600268A5
:1015300063789B079B0F13430360294A116001687E
:1015400040220A4302602079012805D101220321AB
:101550000A2000F0FBF804E0002203210A2000F03A
:10156000F5F8A068002802D0A0681C490860002097
:1015700032BD0100C9B21D4A1160704770B5040048
:10158000FA25AD00184E2000C0B230602800451E7C
:10159000002804D08020FFF774FF0128F6D1002D29
:1015A00001D1092001E03168002070BD38B5FA246E
:1015B000A4000D4D002028602000441E002804D007
:1015C0008020FFF75EFF0128F6D1002C01D1092011
:1015D00001E02868C0B232BD000000007C0000209D
:1015E00008080040000800400C08004004080040C3
:1015F000124224D0994228D970B500251B4202D04E
:101600000C00002109E0002401264918644194429D
:1016100000D3A41A7641F8D33100012601E07641C7
:1016200009D2001864416D41A41A9D41F7D2A41853
:101630005D41B619F5D3300022002B0070BD1B426E
:10164000D8D108B500F024F908BD01D19042D3D219
:1016500002000B00002100207047FEE700B50100EA
:1016600049B2002905D40121C206D20E9140324A66
:10167000116000BD00B5010049B2002909D4012163
:10168000C206D20E91402D4A1160BFF34F8FBFF3B7
:101690006F8F00BD00B5010049B2002905D40121BA
:1016A000C206D20E9140264A116000BDF0B502007C
:1016B00052B2002A1CD40322224B040064B2A408B4
:1016C00004256C431C59FF251600064008277E435D
:1016D000B540AC438D01EDB20240082672439540FF
:1016E0002543020052B29208042462439D5022E036
:1016F0000F24154A032305006DB22540083DAD08AF
:1017000004267543060076B23440083CA40804263B
:1017100074431659FF27BC461C00044008277C432D
:101720006746A740BE438C01E4B2034008277B43D1
:101730009C4034435451F0BD00E100E080E100E002
:1017400080E200E000E400E01CED00E0F8B50600F7
:101750000C0017003500280040B2FFF79BFF210066
:10176000C9B2280040B2FFF7A1FF3800C0B201287B
:1017700004D1280040B2FFF771FF03E0280040B217
:10178000FFF778FFF1BD80B5002000900098002899
:10179000FCD001BD80B5002000BF00BF01BD80B5F9
:1017A000012000BF00BF01BD80B5022000BF00BF07
:1017B00001BD80B5032000BF00BF01BD80B5002082
:1017C00000F02FFA01BD80B5012000F02AFA01BD1A
:1017D00080B5002000BF00BF01BD80B50020FFF72D
:1017E0004BFE01BD80B5002000BF00BF01BD80B52C
:1017F000002000F01CFB01BD80B5012000F017FBAC
:1018000001BD80B5022000F012FB01BD80B50020B3
:1018100000BF00BF01BD80B5042000BF00BF01BDF7
:1018200080B5052000BF00BF01BD80B5062000BF08
:1018300000BF01BD80B5002000BF00BF01BD80B565
:10184000002000F0ACFC01BD80B5002000BF00BF4F
:1018500001BD80B5002000BF00BF01BD80B50020E4
:1018600000BF00BF01BD80B5012000BF00BF01BDAA
:1018700080B5002000BF00BF01BD80B5002000BFC3
:1018800000BF01BD80B5002000BF00BF01BDFEE765
:101890007047FEE700B5010049B2002905D40121D7
:1018A000C206D20E9140414A116000BD00B5010050
:1018B00049B2002909D40121C206D20E91403C4A06
:1018C0001160BFF34F8FBFF36F8F00BD00B50100F4
:1018D00049B2002905D40121C206D20E9140354AF1
:1018E000116000BDF0B5020052B2002A1CD40322E0
:1018F000314B040064B2A40804256C431C59FF2535
:101900001600064008277E43B540AC438D01EDB27A
:1019100002400826724395402543020052B29208C5
:10192000042462439D5022E00F24244A032305002F
:101930006DB22540083DAD0804267543060076B219
:101940003440083CA408042674431659FF27BC46BB
:101950001C00044008277C436746A740BE438C0117
:10196000E4B2034008277B439C4034435451F0BD0C
:1019700070B501000022100013001300DBB2022B2F
:1019800012D20F4B0C00E4B21500EDB214267543D1
:101990005D59AC4206D11400E4B214256C431B1906
:1019A000180001E0521CE8E770BD000000E100E013
:1019B00080E100E080E200E000E400E01CED00E0F7
:1019C0000400002070B505000C0000262800C0B2FD
:1019D000FFF7CEFF0100002901D104200CE0486888
:1019E0004068C02290432200D2B29201C02313402B
:1019F000034348684360002070BD70B505000C00CB
:101A000000262800C0B2FFF7B3FF0100002901D172
:101A1000042016E0002C13D020784A685268202356
:101A20009A4340012023184010434A6850602078B0
:101A3000012805D160784A689060A0784A68D06033
:101A4000002070BD70B505000C0000262800C0B253
:101A5000FFF78EFF0100002901D104200CE0486847
:101A60004068082290432200D2B2D20008231A40D4
:101A7000024348684260002070BDF3B581B0140095
:101A80000026350068460079FFF772FF0700002F37
:101A900001D0002C01D1002024E0607879684968E9
:101AA000114A0A40400280218900084010437968A9
:101AB00048602078002805D0022803D003D30328EB
:101AC00001D00DE00CE0002602986178491C4843E3
:101AD000616820225143FEF73EFF301A0500FFE700
:101AE000280080B2FEBD0000FFFDFFFF70B50500BD
:101AF0000C0000262800C0B2FFF73AFF01000029C1
:101B000001D104200CE04868406810229043220074
:101B1000D2B2120110231A400243486842600020EA
:101B200070BDF8B504000F00002635002000C0B2DB
:101B3000FFF71EFF0100002901D104201EE038003C
:101B4000C0B2002803D002280FD007D314E04868A1
:101B5000006902005207D20F15000DE048680069C5
:101B60000200D207D20F150006E0486800690200A3
:101B70009207D20F1500FFE72800C0B2F2BD70B582
:101B800005000C0000262800C0B2FFF7F1FE01009E
:101B9000002901D104201FE02000C0B2002803D09A
:101BA00002280FD007D314E048684069042290430C
:101BB0004A6850610FE048684069012290434A68D2
:101BC000506108E048684069022290434A685061C9
:101BD00001E0042000E0002070BDF8B504000F0013
:101BE00000262000C0B2FFF7C3FE0500002D01D182
:101BF000042015E002212000C0B2FFF7C0FF38002A
:101C0000C0B26968086002212000C0B2FFF789FFF6
:101C10000028F8D002212000C0B2FFF7B0FF00205A
:101C2000F2BD70B5060000253000C0B2FFF7A0FE7F
:101C30000400002C30D0012560680069800828402D
:101C400000280AD000213000C0B2FFF798FFE068FA
:101C5000002801D0E06880471EE0606800692840E5
:101C6000002809D001213000C0B2FFF788FF2069A9
:101C7000002801D02069804760680069400805405D
:101C8000002D09D002213000C0B2FFF778FFA06814
:101C9000002801D0A068804770BD38B505002C0031
:101CA000A41D200040B2FFF711FE0321200040B226
:101CB000FFF718FE200040B2FFF7ECFD31BD38B54C
:101CC00005002C00A41D200040B2FFF7FFFD0321FA
:101CD000200040B2FFF706FE200040B2FFF7E6FD0D
:101CE00031BDFEB504000D000120694608700027D3
:101CF00001972000C0B2FFF73BFE0600002E01D185
:101D000004202EE0002D01D104202AE029782000B3
:101D1000C0B2FFF757FE694608706868002806D011
:101D200069682000C0B2FFF768FE69460870A868BD
:101D3000002808D0A8684068F060A8688068306112
:101D4000A8680068B060287B012804D12000C0B2D8
:101D5000FFF7A3FF03E02000C0B2FFF7B0FF380099
:101D6000C0B2FEBD00B50100002002000B00DBB2D6
:101D7000002B03D0022B0DD006D311E09B48036843
:101D80001800C007C00F0BE0994803681800C0078F
:101D9000C00F05E0A84803681800C007C00FFFE7A0
:101DA000C0B200BD10B5010000200A00D2B2002A66
:101DB00003D0022A0DD006D311E0A04A13680124F3
:101DC000A34313600DE09E4A13680124A3431360EC
:101DD00007E09C4A13680124A343136001E0012239
:101DE0001000C0B210BD10B5010000200A00D2B230
:101DF000002A03D0022A0FD007D314E0924A1368B6
:101E00008024E4001C4314600FE0904A136880248F
:101E1000E4001C43146008E0A24A13688024E40034
:101E20001C43146001E001221000C0B210BD10B5C7
:101E300004002000C0B2002803D0022809D004D337
:101E40000BE099480068804707E0984800688047A1
:101E500003E0AC4800688047FFE710BD70B50200A2
:101E600000201300DBB2002B03D0022B7BD03DD32C
:101E7000B6E00D78744B1E68A34C34406D0280268A
:101E8000B600354025431D604D781E689F4C344098
:101E90002D0280267600354025431D608D781C6814
:101EA0007026B4432D0170262E4026431E60CD7847
:101EB0001C680826B443ED000826354025431D6004
:101EC0000D791C680426B443AD0004263540254333
:101ED0001D604D791C680226B4436D000226354012
:101EE00025431D608B68704C23607BE00D78574B59
:101EF0001E68854C34406D028026B600354025436F
:101F00001D604D781E68814C34402D02802676007D
:101F1000354025431D608D781C687026B4432D0123
:101F200070262E4026431E60CD781C680826B443D8
:101F3000ED000826354025431D600D791C680426F8
:101F4000B443AD000426354025431D604D791C681F
:101F50000226B4436D000226354025431D60CB6840
:101F6000524C23603EE00D784E4B1E68664C344068
:101F70006D028026B600354025431D604D781E68F1
:101F8000624C34402D0280267600354025431D608A
:101F90008D781C687026B4432D0170262E40264390
:101FA0001E60CD781C680826B443ED000826354035
:101FB00025431D600D791C680426B443AD0004263A
:101FC000354025431D604D791C680226B4436D00E1
:101FD0000226354025431D600B694A4C236001E011
:101FE00001231800C0B270BD00000000100C0040BA
:101FF000300C004010B5010000200A00D2B2002AC7
:1020000003D0022A0DD006D311E00F4A1368012431
:102010001C4314600DE00D4A136801241C43146036
:1020200007E0204A136801241C43146001E00122E8
:102030001000C0B210BD0000500C0040140C004055
:10204000340C0040540C00400C0C00402C0C0040A0
:1020500030B5020000201300DBB2002B03D0022BAE
:1020600013D009D31AE02A4B1C68240C24040D0059
:10207000ADB22C431C6013E0264B1C68240C2404D6
:102080000D00ADB22C431C600AE0234B1C68240CED
:1020900024040D00ADB22C431C6001E001231800A4
:1020A000C0B230BD4C0C00405C000020600000203D
:1020B00030B5020000201300DBB2002B03D0022B4E
:1020C00013D009D31AE0154B1C68240C24040D000E
:1020D000ADB22C431C6013E0114B1C68240C24048B
:1020E0000D00ADB22C431C600AE00E4B1C68240CA2
:1020F00024040D00ADB22C431C6001E00123180044
:10210000C0B230BD64000020FFFDFFFFFFFEFFFFF7
:10211000000C0040200C0040400C0040040C00402B
:10212000240C0040440C004025490A680F239A43C0
:102130000300DBB21B071B0F13430B60704738B55E
:10214000040001252078FFF7EFFF6068002802D027
:1021500060681C490860607819490A6820239A431E
:10216000400120231840104308606078002804D004
:10217000012203211620FFF7E9FA0020C0B232BD88
:10218000012111481E220260E12202600020C0B23B
:1021900070470D481E210160E1210160704780B544
:1021A0000748006801000906C90F002907D0FFF79A
:1021B000E7FF04480168002901D00068804701BD9D
:1021C000840C004080000020800C004080B502207C
:1021D000FFF7C8FD002806D00220FFF7E3FD8A487C
:1021E0000168491C016001BD874800687047F2B56D
:1021F00094B007000024200069460885049410214B
:102200000BA8FEF765FB0C2107A8FEF761FB032175
:1022100003A8FEF75DFB082105A8FEF759FB142172
:102220000FA8FEF755FB002002900020019000202F
:1022300000900123002202210020FFF703F8002074
:102240000290002001900020009001230022012133
:102250000020FEF7F7FF0420C0436C490A680240E3
:102260000A6001256A4A13680726B3432B431360AB
:10227000C44A136818401060086802239843086035
:10228000C14801680723994329430160106802216E
:10229000014311603800C0B2002804D101210020A0
:1022A000FEF756FA03E001210120FEF751FA0994E6
:1022B0000794089407A80D900BA920000873032029
:1022C00002000A7021006A46117303A90C9105A946
:1022D00022004A70149A06920870FDF7E9FF0490F4
:1022E00005AA04993800C0B2FFF7C7FB06000FA883
:1022F0004571210001713800C0B2002811D10FA929
:102300000020FFF7ABFD310089B20020FFF7A0FEEF
:10231000310089B20020FFF7CBFE0020FFF76AFEF4
:1023200010E00FA90120FFF799FD310089B20120CB
:10233000FFF78EFE310089B20120FFF7B9FE0120C0
:10234000FFF758FE0BA93800C0B2FFF7CAFC012105
:102350003800C0B2FFF713FC01213800C0B2FFF70C
:10236000C5FB2100C9B20120FFF76CFB022101204F
:10237000FFF705FC15B0F0BD10B51C00029B401A1C
:102380001B1B5843511AFEF7E3FA001910BDF0B5B4
:1023900085B000252C00974E370014216846FEF7C3
:1023A00097FA954804906846290001702900417009
:1023B000022181702900C170057101252900417138
:1023C00069460220FFF74AFD002800D02C000220B9
:1023D000FFF7E8FC0220FFF706FD01220321102091
:1023E000FFF7B4F9390089B20220FFF731FE31005E
:1023F00089B20220FFF75CFE0220FFF7FBFD200000
:10240000C0B205B0F0BD0000740000200C0D024009
:10241000080C0240F8B586B0082104A8FEF758FA67
:1024200004A80621017000252900417005950121AD
:102430000F20FEF78DF904A8FFF781FEFFF7A0FE3D
:102440000420FDF7A7FF03A8290001700127390028
:1024500041703900817003A8FDF73CFF01211C2069
:10246000FEF776F901210820FEF772F901210F200D
:10247000FEF76EF9FFF78BFFAF490020FFF7B7FEBD
:1024800000200290002001900020009001230022F3
:1024900003210020FEF7D6FE012205210320FEF7CE
:1024A0005CFE012206210320FEF757FEA348FEF73B
:1024B000ABFA002800D1FEE7FEF70EFC0121142044
:1024C000FEF713FC0720FEF77FFC9D48FEF7DAFCC1
:1024D0000820FEF740FDFEF7F6FBF320FEF754FD63
:1024E0000020FEF7D9FB974CFFF77EFE2168401ACB
:1024F0000F2819D3FFF778FE206093480378002255
:102500000021002000F07AF8FFF743FE2C002000A5
:10251000C0B2192808DA8D482100C9B2415C0020F8
:10252000FFF75BFB641CF2E7FFF75EFE0600884CDA
:1025300020881A2804DB280020803800824908708F
:10254000FFF752FE801B292808D300220321002018
:10255000FEF752FF2088401C2080C4E70020FEF7D1
:1025600012FB0028E3D000F011F80028DFD0012290
:1025700003210020FEF740FF280020802800724938
:102580000870B0E7000D0240040C02407CB5002545
:102590002C00FEF761FB002829D06E4EFEF76AFB87
:1025A0002100C9B270542000C0B2002802D1307896
:1025B0005528EED12000C0B2012804D17078FC2843
:1025C00001D02C0013E0641C2000C0B21228E0D11E
:1025D000FEF724FB60490091604B9D22002100B270
:1025E0009D30FFF7C9FE5E490880012000E0002011
:1025F00076BD000060F00000CD210000FFB581B085
:10260000192400200090514D009A2100280000F06C
:10261000AFF80F204D49087000204C49087600257E
:10262000012600273800C0B207285FDA6846007C20
:1026300000280BD03800C0B2062803D03800C0B242
:10264000022801D1454C23E0464C21E03800C0B2BD
:1026500006280FD03F483900C9B202225143411821
:1026600089780C023900C9B2022251434018C0785F
:10267000044301E03A4804883748210089B2814286
:1026800000DB0400200080B23749884200DA334C76
:1026900036480090AD23304A3049200080B2FFF721
:1026A0006BFE6946088000210A001000C0B20B28AA
:1026B0001ADA2800C0B2082802DB08000500761CE0
:1026C00022483300DBB2C35C9C466B461B88134137
:1026D0001C00E407E40FAC4063461C433300DBB24C
:1026E000C4546D1C521CE0E77F1C9BE768460079D0
:1026F000002804D01548C17D01220A43C2756846EE
:10270000007A002804D01148C17D02220A43C27514
:102710006846007B002804D00C48C17D04220A438F
:10272000C2756846007C002804D00848C17D082294
:102730000A43C27505B0F0BDA086010000A1BC33FC
:1027400090D0030078000020880000202C0000209A
:102750008400002048000020890700008304000056
:102760008600002007060000840400001307000014
:102770001206130A1A43130C1A4300BF094205D06C
:10278000830705D00270401C491EF9D17047000034
:102790001300103906D330B41400150010393CC0B2
:1027A000FCD230BC490700D30CC000D504C089005E
:1027B00002D30280801C002900D50270704770B4DB
:1027C0000123002413E00168001D194202D04D4688
:1027D0006D1E49190C60091D121F042AFAD20D0042
:1027E000960701D50C80AD1C1A4000D02C700268F1
:1027F000001D002AE7D170BC704730B50168411850
:10280000446862088A188368E4070DD54C461B1992
:102810000AE00C7864B2491C0D78491C1D705B1CE1
:10282000002C05D5641CF9D19142F2D10C3030BD99
:10283000641EF1D5F8E7FEE705480022874500D978
:1028400002440448026004488047044800470000EE
:102850000000002008ED00E07B080000F5280000E3
:1028600010B5074979441831064C7C44163404E00D
:10287000081D0A68891888470100A142F8D110BDD7
:10288000080000002400000037FFFFFF6000000088
:102890002C0000200000000063FFFFFF7800000014
:1028A000280000000000002000F00DF8002801D0F2
:1028B000FFF7D6FF00BF00BF002000BF00BFFFF73B
:1028C000A9FD00F002F80120704780B500F002F881
:1028D00001BDFEE70746384600F002F8FBE7FEE7D9
:1028E00080B500BF00BF024A11001820ABBEFBE755
:1028F0002600020000BF00BF00BF00BFFFF7D4FFEB
:10290000008000000096000004081018FEE7FEE7B3
:10291000FEE7FEE70200093DF8000040F400000178
:08292000FC0002010040F4007C
:04000005000028F5DA
:00000001FF
